{
    "abi": [
        {
            "type": "constructor",
            "inputs": [
                {
                    "name": "baseTokenURI",
                    "type": "string",
                    "internalType": "string"
                }
            ],
            "stateMutability": "nonpayable"
        },
        {
            "type": "function",
            "name": "approve",
            "inputs": [
                {
                    "name": "to",
                    "type": "address",
                    "internalType": "address"
                },
                {
                    "name": "tokenId",
                    "type": "uint256",
                    "internalType": "uint256"
                }
            ],
            "outputs": [],
            "stateMutability": "nonpayable"
        },
        {
            "type": "function",
            "name": "authorizeWorld",
            "inputs": [
                {
                    "name": "worldAddress",
                    "type": "address",
                    "internalType": "address"
                }
            ],
            "outputs": [],
            "stateMutability": "nonpayable"
        },
        {
            "type": "function",
            "name": "authorizedWorlds",
            "inputs": [
                {
                    "name": "",
                    "type": "address",
                    "internalType": "address"
                }
            ],
            "outputs": [
                {
                    "name": "",
                    "type": "bool",
                    "internalType": "bool"
                }
            ],
            "stateMutability": "view"
        },
        {
            "type": "function",
            "name": "balanceOf",
            "inputs": [
                {
                    "name": "owner",
                    "type": "address",
                    "internalType": "address"
                }
            ],
            "outputs": [
                {
                    "name": "",
                    "type": "uint256",
                    "internalType": "uint256"
                }
            ],
            "stateMutability": "view"
        },
        {
            "type": "function",
            "name": "checkpoints",
            "inputs": [
                {
                    "name": "",
                    "type": "uint256",
                    "internalType": "uint256"
                }
            ],
            "outputs": [
                {
                    "name": "worldName",
                    "type": "string",
                    "internalType": "string"
                },
                {
                    "name": "levelNumber",
                    "type": "uint16",
                    "internalType": "uint16"
                },
                {
                    "name": "levelPercentage",
                    "type": "uint8",
                    "internalType": "uint8"
                },
                {
                    "name": "playerScore",
                    "type": "uint128",
                    "internalType": "uint128"
                },
                {
                    "name": "health",
                    "type": "uint16",
                    "internalType": "uint16"
                },
                {
                    "name": "souls",
                    "type": "uint16",
                    "internalType": "uint16"
                },
                {
                    "name": "timePlayed",
                    "type": "uint32",
                    "internalType": "uint32"
                },
                {
                    "name": "kills",
                    "type": "uint32",
                    "internalType": "uint32"
                },
                {
                    "name": "boosters",
                    "type": "uint16",
                    "internalType": "uint16"
                }
            ],
            "stateMutability": "view"
        },
        {
            "type": "function",
            "name": "getApproved",
            "inputs": [
                {
                    "name": "tokenId",
                    "type": "uint256",
                    "internalType": "uint256"
                }
            ],
            "outputs": [
                {
                    "name": "",
                    "type": "address",
                    "internalType": "address"
                }
            ],
            "stateMutability": "view"
        },
        {
            "type": "function",
            "name": "getCheckpointData",
            "inputs": [
                {
                    "name": "tokenId",
                    "type": "uint256",
                    "internalType": "uint256"
                }
            ],
            "outputs": [
                {
                    "name": "",
                    "type": "tuple",
                    "internalType": "struct CheckPointNFT.CheckpointData",
                    "components": [
                        {
                            "name": "worldName",
                            "type": "string",
                            "internalType": "string"
                        },
                        {
                            "name": "levelNumber",
                            "type": "uint16",
                            "internalType": "uint16"
                        },
                        {
                            "name": "levelPercentage",
                            "type": "uint8",
                            "internalType": "uint8"
                        },
                        {
                            "name": "playerScore",
                            "type": "uint128",
                            "internalType": "uint128"
                        },
                        {
                            "name": "health",
                            "type": "uint16",
                            "internalType": "uint16"
                        },
                        {
                            "name": "souls",
                            "type": "uint16",
                            "internalType": "uint16"
                        },
                        {
                            "name": "weapons",
                            "type": "string[]",
                            "internalType": "string[]"
                        },
                        {
                            "name": "items",
                            "type": "string[]",
                            "internalType": "string[]"
                        },
                        {
                            "name": "timePlayed",
                            "type": "uint32",
                            "internalType": "uint32"
                        },
                        {
                            "name": "kills",
                            "type": "uint32",
                            "internalType": "uint32"
                        },
                        {
                            "name": "boosters",
                            "type": "uint16",
                            "internalType": "uint16"
                        }
                    ]
                }
            ],
            "stateMutability": "view"
        },
        {
            "type": "function",
            "name": "isApprovedForAll",
            "inputs": [
                {
                    "name": "owner",
                    "type": "address",
                    "internalType": "address"
                },
                {
                    "name": "operator",
                    "type": "address",
                    "internalType": "address"
                }
            ],
            "outputs": [
                {
                    "name": "",
                    "type": "bool",
                    "internalType": "bool"
                }
            ],
            "stateMutability": "view"
        },
        {
            "type": "function",
            "name": "mintCheckpoint",
            "inputs": [
                {
                    "name": "worldName",
                    "type": "string",
                    "internalType": "string"
                },
                {
                    "name": "levelNumber",
                    "type": "uint16",
                    "internalType": "uint16"
                },
                {
                    "name": "levelPercentage",
                    "type": "uint8",
                    "internalType": "uint8"
                },
                {
                    "name": "playerScore",
                    "type": "uint128",
                    "internalType": "uint128"
                },
                {
                    "name": "health",
                    "type": "uint16",
                    "internalType": "uint16"
                },
                {
                    "name": "souls",
                    "type": "uint16",
                    "internalType": "uint16"
                },
                {
                    "name": "weapons",
                    "type": "string[]",
                    "internalType": "string[]"
                },
                {
                    "name": "items",
                    "type": "string[]",
                    "internalType": "string[]"
                },
                {
                    "name": "timePlayed",
                    "type": "uint32",
                    "internalType": "uint32"
                },
                {
                    "name": "kills",
                    "type": "uint32",
                    "internalType": "uint32"
                },
                {
                    "name": "boosters",
                    "type": "uint16",
                    "internalType": "uint16"
                }
            ],
            "outputs": [
                {
                    "name": "",
                    "type": "uint256",
                    "internalType": "uint256"
                }
            ],
            "stateMutability": "nonpayable"
        },
        {
            "type": "function",
            "name": "name",
            "inputs": [],
            "outputs": [
                {
                    "name": "",
                    "type": "string",
                    "internalType": "string"
                }
            ],
            "stateMutability": "view"
        },
        {
            "type": "function",
            "name": "owner",
            "inputs": [],
            "outputs": [
                {
                    "name": "",
                    "type": "address",
                    "internalType": "address"
                }
            ],
            "stateMutability": "view"
        },
        {
            "type": "function",
            "name": "ownerOf",
            "inputs": [
                {
                    "name": "tokenId",
                    "type": "uint256",
                    "internalType": "uint256"
                }
            ],
            "outputs": [
                {
                    "name": "",
                    "type": "address",
                    "internalType": "address"
                }
            ],
            "stateMutability": "view"
        },
        {
            "type": "function",
            "name": "renounceOwnership",
            "inputs": [],
            "outputs": [],
            "stateMutability": "nonpayable"
        },
        {
            "type": "function",
            "name": "revokeWorld",
            "inputs": [
                {
                    "name": "worldAddress",
                    "type": "address",
                    "internalType": "address"
                }
            ],
            "outputs": [],
            "stateMutability": "nonpayable"
        },
        {
            "type": "function",
            "name": "safeTransferFrom",
            "inputs": [
                {
                    "name": "from",
                    "type": "address",
                    "internalType": "address"
                },
                {
                    "name": "to",
                    "type": "address",
                    "internalType": "address"
                },
                {
                    "name": "tokenId",
                    "type": "uint256",
                    "internalType": "uint256"
                }
            ],
            "outputs": [],
            "stateMutability": "nonpayable"
        },
        {
            "type": "function",
            "name": "safeTransferFrom",
            "inputs": [
                {
                    "name": "from",
                    "type": "address",
                    "internalType": "address"
                },
                {
                    "name": "to",
                    "type": "address",
                    "internalType": "address"
                },
                {
                    "name": "tokenId",
                    "type": "uint256",
                    "internalType": "uint256"
                },
                {
                    "name": "data",
                    "type": "bytes",
                    "internalType": "bytes"
                }
            ],
            "outputs": [],
            "stateMutability": "nonpayable"
        },
        {
            "type": "function",
            "name": "setApprovalForAll",
            "inputs": [
                {
                    "name": "operator",
                    "type": "address",
                    "internalType": "address"
                },
                {
                    "name": "approved",
                    "type": "bool",
                    "internalType": "bool"
                }
            ],
            "outputs": [],
            "stateMutability": "nonpayable"
        },
        {
            "type": "function",
            "name": "supportsInterface",
            "inputs": [
                {
                    "name": "interfaceId",
                    "type": "bytes4",
                    "internalType": "bytes4"
                }
            ],
            "outputs": [
                {
                    "name": "",
                    "type": "bool",
                    "internalType": "bool"
                }
            ],
            "stateMutability": "view"
        },
        {
            "type": "function",
            "name": "symbol",
            "inputs": [],
            "outputs": [
                {
                    "name": "",
                    "type": "string",
                    "internalType": "string"
                }
            ],
            "stateMutability": "view"
        },
        {
            "type": "function",
            "name": "tokenURI",
            "inputs": [
                {
                    "name": "tokenId",
                    "type": "uint256",
                    "internalType": "uint256"
                }
            ],
            "outputs": [
                {
                    "name": "",
                    "type": "string",
                    "internalType": "string"
                }
            ],
            "stateMutability": "view"
        },
        {
            "type": "function",
            "name": "transferFrom",
            "inputs": [
                {
                    "name": "from",
                    "type": "address",
                    "internalType": "address"
                },
                {
                    "name": "to",
                    "type": "address",
                    "internalType": "address"
                },
                {
                    "name": "tokenId",
                    "type": "uint256",
                    "internalType": "uint256"
                }
            ],
            "outputs": [],
            "stateMutability": "nonpayable"
        },
        {
            "type": "function",
            "name": "transferOwnership",
            "inputs": [
                {
                    "name": "newOwner",
                    "type": "address",
                    "internalType": "address"
                }
            ],
            "outputs": [],
            "stateMutability": "nonpayable"
        },
        {
            "type": "function",
            "name": "updateCheckpointData",
            "inputs": [
                {
                    "name": "tokenId",
                    "type": "uint256",
                    "internalType": "uint256"
                },
                {
                    "name": "worldName",
                    "type": "string",
                    "internalType": "string"
                },
                {
                    "name": "levelNumber",
                    "type": "uint16",
                    "internalType": "uint16"
                },
                {
                    "name": "levelPercentage",
                    "type": "uint8",
                    "internalType": "uint8"
                },
                {
                    "name": "playerScore",
                    "type": "uint128",
                    "internalType": "uint128"
                },
                {
                    "name": "health",
                    "type": "uint16",
                    "internalType": "uint16"
                },
                {
                    "name": "souls",
                    "type": "uint16",
                    "internalType": "uint16"
                },
                {
                    "name": "weapons",
                    "type": "string[]",
                    "internalType": "string[]"
                },
                {
                    "name": "items",
                    "type": "string[]",
                    "internalType": "string[]"
                },
                {
                    "name": "timePlayed",
                    "type": "uint32",
                    "internalType": "uint32"
                },
                {
                    "name": "kills",
                    "type": "uint32",
                    "internalType": "uint32"
                },
                {
                    "name": "boosters",
                    "type": "uint16",
                    "internalType": "uint16"
                }
            ],
            "outputs": [],
            "stateMutability": "nonpayable"
        },
        {
            "type": "event",
            "name": "Approval",
            "inputs": [
                {
                    "name": "owner",
                    "type": "address",
                    "indexed": true,
                    "internalType": "address"
                },
                {
                    "name": "approved",
                    "type": "address",
                    "indexed": true,
                    "internalType": "address"
                },
                {
                    "name": "tokenId",
                    "type": "uint256",
                    "indexed": true,
                    "internalType": "uint256"
                }
            ],
            "anonymous": false
        },
        {
            "type": "event",
            "name": "ApprovalForAll",
            "inputs": [
                {
                    "name": "owner",
                    "type": "address",
                    "indexed": true,
                    "internalType": "address"
                },
                {
                    "name": "operator",
                    "type": "address",
                    "indexed": true,
                    "internalType": "address"
                },
                {
                    "name": "approved",
                    "type": "bool",
                    "indexed": false,
                    "internalType": "bool"
                }
            ],
            "anonymous": false
        },
        {
            "type": "event",
            "name": "CheckpointMinted",
            "inputs": [
                {
                    "name": "tokenId",
                    "type": "uint256",
                    "indexed": true,
                    "internalType": "uint256"
                },
                {
                    "name": "player",
                    "type": "address",
                    "indexed": true,
                    "internalType": "address"
                },
                {
                    "name": "world",
                    "type": "address",
                    "indexed": true,
                    "internalType": "address"
                }
            ],
            "anonymous": false
        },
        {
            "type": "event",
            "name": "CheckpointUpdated",
            "inputs": [
                {
                    "name": "tokenId",
                    "type": "uint256",
                    "indexed": true,
                    "internalType": "uint256"
                },
                {
                    "name": "updater",
                    "type": "address",
                    "indexed": true,
                    "internalType": "address"
                }
            ],
            "anonymous": false
        },
        {
            "type": "event",
            "name": "OwnershipTransferred",
            "inputs": [
                {
                    "name": "previousOwner",
                    "type": "address",
                    "indexed": true,
                    "internalType": "address"
                },
                {
                    "name": "newOwner",
                    "type": "address",
                    "indexed": true,
                    "internalType": "address"
                }
            ],
            "anonymous": false
        },
        {
            "type": "event",
            "name": "Transfer",
            "inputs": [
                {
                    "name": "from",
                    "type": "address",
                    "indexed": true,
                    "internalType": "address"
                },
                {
                    "name": "to",
                    "type": "address",
                    "indexed": true,
                    "internalType": "address"
                },
                {
                    "name": "tokenId",
                    "type": "uint256",
                    "indexed": true,
                    "internalType": "uint256"
                }
            ],
            "anonymous": false
        },
        {
            "type": "event",
            "name": "WorldAuthorized",
            "inputs": [
                {
                    "name": "worldAddress",
                    "type": "address",
                    "indexed": true,
                    "internalType": "address"
                }
            ],
            "anonymous": false
        },
        {
            "type": "event",
            "name": "WorldRevoked",
            "inputs": [
                {
                    "name": "worldAddress",
                    "type": "address",
                    "indexed": true,
                    "internalType": "address"
                }
            ],
            "anonymous": false
        },
        {
            "type": "error",
            "name": "ERC721IncorrectOwner",
            "inputs": [
                {
                    "name": "sender",
                    "type": "address",
                    "internalType": "address"
                },
                {
                    "name": "tokenId",
                    "type": "uint256",
                    "internalType": "uint256"
                },
                {
                    "name": "owner",
                    "type": "address",
                    "internalType": "address"
                }
            ]
        },
        {
            "type": "error",
            "name": "ERC721InsufficientApproval",
            "inputs": [
                {
                    "name": "operator",
                    "type": "address",
                    "internalType": "address"
                },
                {
                    "name": "tokenId",
                    "type": "uint256",
                    "internalType": "uint256"
                }
            ]
        },
        {
            "type": "error",
            "name": "ERC721InvalidApprover",
            "inputs": [
                {
                    "name": "approver",
                    "type": "address",
                    "internalType": "address"
                }
            ]
        },
        {
            "type": "error",
            "name": "ERC721InvalidOperator",
            "inputs": [
                {
                    "name": "operator",
                    "type": "address",
                    "internalType": "address"
                }
            ]
        },
        {
            "type": "error",
            "name": "ERC721InvalidOwner",
            "inputs": [
                {
                    "name": "owner",
                    "type": "address",
                    "internalType": "address"
                }
            ]
        },
        {
            "type": "error",
            "name": "ERC721InvalidReceiver",
            "inputs": [
                {
                    "name": "receiver",
                    "type": "address",
                    "internalType": "address"
                }
            ]
        },
        {
            "type": "error",
            "name": "ERC721InvalidSender",
            "inputs": [
                {
                    "name": "sender",
                    "type": "address",
                    "internalType": "address"
                }
            ]
        },
        {
            "type": "error",
            "name": "ERC721NonexistentToken",
            "inputs": [
                {
                    "name": "tokenId",
                    "type": "uint256",
                    "internalType": "uint256"
                }
            ]
        },
        {
            "type": "error",
            "name": "OwnableInvalidOwner",
            "inputs": [
                {
                    "name": "owner",
                    "type": "address",
                    "internalType": "address"
                }
            ]
        },
        {
            "type": "error",
            "name": "OwnableUnauthorizedAccount",
            "inputs": [
                {
                    "name": "account",
                    "type": "address",
                    "internalType": "address"
                }
            ]
        }
    ],
    "bytecode": {
        "object": "0x608060405234801561001057600080fd5b50604051613f00380380613f0083398101604081905261002f91610141565b336040518060400160405280600a81526020016910da1958dad41bda5b9d60b21b8152506040518060400160405280600381526020016210d41560ea1b815250816000908161007e9190610295565b50600161008b8282610295565b5050506001600160a01b0381166100bc57604051631e4fbdf760e01b81526000600482015260240160405180910390fd5b6100c5816100d9565b5060086100d28282610295565b5050610354565b600680546001600160a01b038381166001600160a01b0319831681179093556040519116919082907f8be0079c531659141344cd1fd0a4f28419497f9722a3daafe3b4186f6b6457e090600090a35050565b634e487b7160e01b600052604160045260246000fd5b6000602080838503121561015457600080fd5b82516001600160401b038082111561016b57600080fd5b818501915085601f83011261017f57600080fd5b8151818111156101915761019161012b565b604051601f8201601f19908116603f011681019083821181831017156101b9576101b961012b565b8160405282815288868487010111156101d157600080fd5b600093505b828410156101f357848401860151818501870152928501926101d6565b600086848301015280965050505050505092915050565b600181811c9082168061021e57607f821691505b60208210810361023e57634e487b7160e01b600052602260045260246000fd5b50919050565b601f821115610290576000816000526020600020601f850160051c8101602086101561026d5750805b601f850160051c820191505b8181101561028c57828155600101610279565b5050505b505050565b81516001600160401b038111156102ae576102ae61012b565b6102c2816102bc845461020a565b84610244565b602080601f8311600181146102f757600084156102df5750858301515b600019600386901b1c1916600185901b17855561028c565b600085815260208120601f198616915b8281101561032657888601518255948401946001909101908401610307565b50858210156103445787850151600019600388901b60f8161c191681555b5050505050600190811b01905550565b613b9d806103636000396000f3fe608060405234801561001057600080fd5b506004361061014d5760003560e01c806370a08231116100c3578063a22cb4651161007c578063a22cb465146102d9578063b88d4fde146102ec578063b8a24252146102ff578063c87b56dd14610327578063e985e9c51461033a578063f2fde38b1461034d57600080fd5b806370a0823114610264578063715018a6146102855780637b4a223b1461028d5780638331b478146102ad5780638da5cb5b146102c057806395d89b41146102d157600080fd5b80632df23171116101155780632df23171146101e257806334000a351461020557806337a0b8571461021857806342842e0e1461022b578063623c02001461023e5780636352211e1461025157600080fd5b806301ffc9a71461015257806306fdde031461017a578063081812fc1461018f578063095ea7b3146101ba57806323b872dd146101cf575b600080fd5b6101656101603660046128cc565b610360565b60405190151581526020015b60405180910390f35b6101826103b2565b6040516101719190612939565b6101a261019d36600461294c565b610444565b6040516001600160a01b039091168152602001610171565b6101cd6101c8366004612981565b61046d565b005b6101cd6101dd3660046129ab565b61047c565b6101656101f03660046129e7565b600a6020526000908152604090205460ff1681565b6101cd610213366004612bae565b61050c565b6101cd6102263660046129e7565b610a77565b6101cd6102393660046129ab565b610ac8565b6101cd61024c3660046129e7565b610ae8565b6101a261025f36600461294c565b610b3c565b6102776102723660046129e7565b610b47565b604051908152602001610171565b6101cd610b8f565b6102a061029b36600461294c565b610ba3565b6040516101719190612d35565b6102776102bb366004612e36565b610f4b565b6006546001600160a01b03166101a2565b61018261145e565b6101cd6102e7366004612f48565b61146d565b6101cd6102fa366004612f84565b611478565b61031261030d36600461294c565b611490565b60405161017199989796959493929190613000565b61018261033536600461294c565b61158d565b610165610348366004613072565b611e7c565b6101cd61035b3660046129e7565b611eaa565b60006001600160e01b031982166380ac58cd60e01b148061039157506001600160e01b03198216635b5e139f60e01b145b806103ac57506301ffc9a760e01b6001600160e01b03198316145b92915050565b6060600080546103c1906130a5565b80601f01602080910402602001604051908101604052809291908181526020018280546103ed906130a5565b801561043a5780601f1061040f5761010080835404028352916020019161043a565b820191906000526020600020905b81548152906001019060200180831161041d57829003601f168201915b5050505050905090565b600061044f82611ee8565b506000828152600460205260409020546001600160a01b03166103ac565b610478828233611f21565b5050565b6001600160a01b0382166104ab57604051633250574960e11b8152600060048201526024015b60405180910390fd5b60006104b8838333611f2e565b9050836001600160a01b0316816001600160a01b031614610506576040516364283d7b60e01b81526001600160a01b03808616600483015260248201849052821660448201526064016104a2565b50505050565b600b5460ff161561055f5760405162461bcd60e51b815260206004820152601f60248201527f5265656e7472616e637947756172643a207265656e7472616e742063616c6c0060448201526064016104a2565b600b805460ff19166001179055336000908152600a602052604090205460ff166105e15760405162461bcd60e51b815260206004820152602d60248201527f4f6e6c7920617574686f72697a656420776f726c64732063616e20757064617460448201526c6520636865636b706f696e747360981b60648201526084016104a2565b6105ea8c610b3c565b6001600160a01b0316326001600160a01b03161461065f5760405162461bcd60e51b815260206004820152602c60248201527f5472616e73616374696f6e206d75737420626520696e6974696174656420627960448201526b103a37b5b2b71037bbb732b960a11b60648201526084016104a2565b8a51606410156106815760405162461bcd60e51b81526004016104a2906130df565b6103e861ffff8b1611156106a75760405162461bcd60e51b81526004016104a290613120565b60648960ff1611156106f65760405162461bcd60e51b8152602060048201526018602482015277496e76616c6964206c6576656c2070657263656e7461676560401b60448201526064016104a2565b61271061ffff8816111561071c5760405162461bcd60e51b81526004016104a290613162565b606461ffff871611156107415760405162461bcd60e51b81526004016104a2906131a4565b8451601410156107635760405162461bcd60e51b81526004016104a2906131e5565b83516103e810156107865760405162461bcd60e51b81526004016104a290613229565b600a61ffff821611156107ab5760405162461bcd60e51b81526004016104a29061326b565b60005b85518110156107fd57606460ff168682815181106107ce576107ce6132af565b60200260200101515111156107f55760405162461bcd60e51b81526004016104a2906132c5565b6001016107ae565b5060005b845181101561088057606460ff16858281518110610821576108216132af565b60200260200101515111156108785760405162461bcd60e51b815260206004820181905260248201527f4974656d206e616d652065786365656473206d6178696d756d206c656e67746860448201526064016104a2565b600101610801565b5060408051610160810182528c815261ffff808d1660208084019190915260ff8d16838501526001600160801b038c1660608401528a8216608084015289821660a084015260c0830189905260e0830188905263ffffffff808816610100850152861661012084015290841661014083015260008f81526009909152919091208151819061090e908261334f565b5060208281015160018301805460408601516060870151608088015160a089015161ffff96871662ffffff19909516949094176201000060ff90941693909302929092176301000000600160a81b03191663010000006001600160801b039092169190910261ffff60981b191617600160981b918516919091021761ffff60a81b1916600160a81b939091169290920291909117905560c083015180516109bb92600285019201906127f9565b5060e082015180516109d79160038401916020909101906127f9565b50610100820151600490910180546101208401516101409094015161ffff16600160401b0261ffff60401b1963ffffffff9586166401000000000267ffffffffffffffff199093169590941694909417179190911691909117905560405133908d907f78c6e3a16f0b27572695582a43ac049dbed250661dcefcf23ba92dbccd8bdd7a90600090a35050600b805460ff1916905550505050505050505050565b610a7f612029565b6001600160a01b0381166000818152600a6020526040808220805460ff19169055517f5aba7521a0dcbe9718c0efc8f4d39405a9f4c815f8a8b84707b2f73d2e1641969190a250565b610ae383838360405180602001604052806000815250611478565b505050565b610af0612029565b6001600160a01b0381166000818152600a6020526040808220805460ff19166001179055517f1dcf5e1a1a1571eeecdb1e2adac81ca7030447faac0028fd5ef5416712b348539190a250565b60006103ac82611ee8565b60006001600160a01b038216610b73576040516322718ad960e21b8152600060048201526024016104a2565b506001600160a01b031660009081526003602052604090205490565b610b97612029565b610ba16000612056565b565b604080516101608101825260608082526000602083018190529282018390528082018390526080820183905260a0820183905260c0820181905260e0820152610100810182905261012081018290526101408101919091526000828152600260205260408120546001600160a01b03166001600160a01b031603610c605760405162461bcd60e51b8152602060048201526014602482015273151bdad95b88191bd95cc81b9bdd08195e1a5cdd60621b60448201526064016104a2565b6000828152600960205260409081902081516101608101909252805482908290610c89906130a5565b80601f0160208091040260200160405190810160405280929190818152602001828054610cb5906130a5565b8015610d025780601f10610cd757610100808354040283529160200191610d02565b820191906000526020600020905b815481529060010190602001808311610ce557829003601f168201915b5050509183525050600182015461ffff80821660208085019190915260ff620100008404166040808601919091526001600160801b0363010000008504166060860152600160981b840483166080860152600160a81b90930490911660a084015260028401805483518184028101840190945280845260c090940193909160009084015b82821015610e32578382906000526020600020018054610da5906130a5565b80601f0160208091040260200160405190810160405280929190818152602001828054610dd1906130a5565b8015610e1e5780601f10610df357610100808354040283529160200191610e1e565b820191906000526020600020905b815481529060010190602001808311610e0157829003601f168201915b505050505081526020019060010190610d86565b50505050815260200160038201805480602002602001604051908101604052809291908181526020016000905b82821015610f0b578382906000526020600020018054610e7e906130a5565b80601f0160208091040260200160405190810160405280929190818152602001828054610eaa906130a5565b8015610ef75780601f10610ecc57610100808354040283529160200191610ef7565b820191906000526020600020905b815481529060010190602001808311610eda57829003601f168201915b505050505081526020019060010190610e5f565b505050908252506004919091015463ffffffff80821660208401526401000000008204166040830152600160401b900461ffff1660609091015292915050565b600b5460009060ff1615610fa15760405162461bcd60e51b815260206004820152601f60248201527f5265656e7472616e637947756172643a207265656e7472616e742063616c6c0060448201526064016104a2565b600b805460ff19166001179055336000908152600a602052604090205460ff166110215760405162461bcd60e51b815260206004820152602b60248201527f4f6e6c7920617574686f72697a656420776f726c64732063616e206d696e742060448201526a636865636b706f696e747360a81b60648201526084016104a2565b8b51606410156110435760405162461bcd60e51b81526004016104a2906130df565b6103e861ffff8c1611156110695760405162461bcd60e51b81526004016104a290613120565b60648a60ff1611156110b85760405162461bcd60e51b8152602060048201526018602482015277496e76616c6964206c6576656c2070657263656e7461676560401b60448201526064016104a2565b61271061ffff891611156110de5760405162461bcd60e51b81526004016104a290613162565b606461ffff881611156111035760405162461bcd60e51b81526004016104a2906131a4565b8551601410156111255760405162461bcd60e51b81526004016104a2906131e5565b84516103e810156111485760405162461bcd60e51b81526004016104a290613229565b600a61ffff8316111561116d5760405162461bcd60e51b81526004016104a29061326b565b60005b86518110156111bf57606460ff16878281518110611190576111906132af565b60200260200101515111156111b75760405162461bcd60e51b81526004016104a2906132c5565b600101611170565b5060005b855181101561124257606460ff168682815181106111e3576111e36132af565b602002602001015151111561123a5760405162461bcd60e51b815260206004820181905260248201527f4974656d206e616d652065786365656473206d6178696d756d206c656e67746860448201526064016104a2565b6001016111c3565b50600780546000918261125483613425565b91905055905061126432826120a8565b60408051610160810182528e815261ffff808f1660208084019190915260ff8f16838501526001600160801b038e1660608401528c821660808401528b821660a084015260c083018b905260e083018a905263ffffffff808a1661010085015288166101208401529086166101408301526000848152600990915291909120815181906112f1908261334f565b5060208281015160018301805460408601516060870151608088015160a089015161ffff96871662ffffff19909516949094176201000060ff90941693909302929092176301000000600160a81b03191663010000006001600160801b039092169190910261ffff60981b191617600160981b918516919091021761ffff60a81b1916600160a81b939091169290920291909117905560c0830151805161139e92600285019201906127f9565b5060e082015180516113ba9160038401916020909101906127f9565b50610100820151600490910180546101208401516101409094015161ffff16600160401b0261ffff60401b1963ffffffff9586166401000000000267ffffffffffffffff19909316959094169490941717919091169190911790556040513390329083907f3da628b4c9e151007da5b2dccee3ab892766905e13578cbafd64d1e69850a54790600090a4600b805460ff191690559c9b505050505050505050505050565b6060600180546103c1906130a5565b6104783383836120c2565b61148384848461047c565b6105063385858585612161565b6009602052600090815260409020805481906114ab906130a5565b80601f01602080910402602001604051908101604052809291908181526020018280546114d7906130a5565b80156115245780601f106114f957610100808354040283529160200191611524565b820191906000526020600020905b81548152906001019060200180831161150757829003601f168201915b5050506001840154600490940154929361ffff8082169460ff6201000084041694506001600160801b0363010000008404169350600160981b8304821692600160a81b900482169163ffffffff80831692640100000000810490911691600160401b9091041689565b6000818152600260205260409020546060906001600160a01b03166115eb5760405162461bcd60e51b8152602060048201526014602482015273151bdad95b88191bd95cc81b9bdd08195e1a5cdd60621b60448201526064016104a2565b60008281526009602052604080822081516101608101909252805482908290611613906130a5565b80601f016020809104026020016040519081016040528092919081815260200182805461163f906130a5565b801561168c5780601f106116615761010080835404028352916020019161168c565b820191906000526020600020905b81548152906001019060200180831161166f57829003601f168201915b5050509183525050600182015461ffff80821660208085019190915260ff620100008404166040808601919091526001600160801b0363010000008504166060860152600160981b840483166080860152600160a81b90930490911660a084015260028401805483518184028101840190945280845260c090940193909160009084015b828210156117bc57838290600052602060002001805461172f906130a5565b80601f016020809104026020016040519081016040528092919081815260200182805461175b906130a5565b80156117a85780601f1061177d576101008083540402835291602001916117a8565b820191906000526020600020905b81548152906001019060200180831161178b57829003601f168201915b505050505081526020019060010190611710565b50505050815260200160038201805480602002602001604051908101604052809291908181526020016000905b82821015611895578382906000526020600020018054611808906130a5565b80601f0160208091040260200160405190810160405280929190818152602001828054611834906130a5565b80156118815780601f1061185657610100808354040283529160200191611881565b820191906000526020600020905b81548152906001019060200180831161186457829003601f168201915b5050505050815260200190600101906117e9565b505050908252506004919091015463ffffffff80821660208401526401000000008204166040830152600160401b900461ffff1660609091015260e08101515160c0820151519192506000916118ec90600961343e565b6118f6919061343e565b67ffffffffffffffff81111561190e5761190e612a02565b60405190808252806020026020018201604052801561194157816020015b606081526020019060019003908161192c5790505b5090506000826000015160405160200161195b919061346d565b60405160208183030381529060405282828061197690613425565b935081518110611988576119886132af565b60200260200101819052506119a4836020015161ffff1661228c565b6040516020016119b491906134ce565b6040516020818303038152906040528282806119cf90613425565b9350815181106119e1576119e16132af565b60200260200101819052506119fc836040015160ff1661228c565b604051602001611a0c919061352a565b604051602081830303815290604052828280611a2790613425565b935081518110611a3957611a396132af565b6020026020010181905250611a5a83606001516001600160801b031661228c565b604051602001611a6a9190613591565b604051602081830303815290604052828280611a8590613425565b935081518110611a9757611a976132af565b6020026020010181905250611ab3836080015161ffff1661228c565b604051602001611ac391906135d4565b604051602081830303815290604052828280611ade90613425565b935081518110611af057611af06132af565b6020026020010181905250611b0c8360a0015161ffff1661228c565b604051602001611b1c9190613631565b604051602081830303815290604052828280611b3790613425565b935081518110611b4957611b496132af565b6020026020010181905250611b6883610100015163ffffffff1661228c565b604051602001611b789190613674565b604051602081830303815290604052828280611b9390613425565b935081518110611ba557611ba56132af565b6020026020010181905250611bc483610120015163ffffffff1661228c565b604051602001611bd491906136d6565b604051602081830303815290604052828280611bef90613425565b935081518110611c0157611c016132af565b6020026020010181905250611c1e83610140015161ffff1661228c565b604051602001611c2e9190613719565b604051602081830303815290604052828280611c4990613425565b935081518110611c5b57611c5b6132af565b602002602001018190525060005b8360c0015151811015611cf857611c89611c8482600161343e565b61228c565b8460c001518281518110611c9f57611c9f6132af565b6020026020010151604051602001611cb8929190613779565b604051602081830303815290604052838380611cd390613425565b945081518110611ce557611ce56132af565b6020908102919091010152600101611c69565b5060005b8360e0015151811015611d8657611d17611c8482600161343e565b8460e001518281518110611d2d57611d2d6132af565b6020026020010151604051602001611d469291906137f9565b604051602081830303815290604052838380611d6190613425565b945081518110611d7357611d736132af565b6020908102919091010152600101611cfc565b50604080516020810190915260008082525b8351811015611e10578015611dca5781604051602001611db89190613872565b60405160208183030381529060405291505b81848281518110611ddd57611ddd6132af565b6020026020010151604051602001611df6929190613897565b60408051601f198184030181529190529150600101611d98565b506000611e1c8761228c565b611e2461231f565b83604051602001611e37939291906138c6565b6040516020818303038152906040529050611e518161232e565b604051602001611e619190613a59565b60405160208183030381529060405295505050505050919050565b6001600160a01b03918216600090815260056020908152604080832093909416825291909152205460ff1690565b611eb2612029565b6001600160a01b038116611edc57604051631e4fbdf760e01b8152600060048201526024016104a2565b611ee581612056565b50565b6000818152600260205260408120546001600160a01b0316806103ac57604051637e27328960e01b8152600481018490526024016104a2565b610ae38383836001612354565b6000828152600260205260408120546001600160a01b0390811690831615611f5b57611f5b81848661245a565b6001600160a01b03811615611f9957611f78600085600080612354565b6001600160a01b038116600090815260036020526040902080546000190190555b6001600160a01b03851615611fc8576001600160a01b0385166000908152600360205260409020805460010190555b60008481526002602052604080822080546001600160a01b0319166001600160a01b0389811691821790925591518793918516917fddf252ad1be2c89b69c2b068fc378daa952ba7f163c4a11628f55a4df523b3ef91a490505b9392505050565b6006546001600160a01b03163314610ba15760405163118cdaa760e01b81523360048201526024016104a2565b600680546001600160a01b038381166001600160a01b0319831681179093556040519116919082907f8be0079c531659141344cd1fd0a4f28419497f9722a3daafe3b4186f6b6457e090600090a35050565b6104788282604051806020016040528060008152506124be565b6001600160a01b0382166120f457604051630b61174360e31b81526001600160a01b03831660048201526024016104a2565b6001600160a01b03838116600081815260056020908152604080832094871680845294825291829020805460ff191686151590811790915591519182527f17307eab39ab6107e8899845ad3d59bd9653f200f220920489ca2b5937696c31910160405180910390a3505050565b6001600160a01b0383163b1561228557604051630a85bd0160e11b81526001600160a01b0384169063150b7a02906121a3908890889087908790600401613a9e565b6020604051808303816000875af19250505080156121de575060408051601f3d908101601f191682019092526121db91810190613ad1565b60015b612247573d80801561220c576040519150601f19603f3d011682016040523d82523d6000602084013e612211565b606091505b50805160000361223f57604051633250574960e11b81526001600160a01b03851660048201526024016104a2565b805181602001fd5b6001600160e01b03198116630a85bd0160e11b1461228357604051633250574960e11b81526001600160a01b03851660048201526024016104a2565b505b5050505050565b60606000612299836124d6565b600101905060008167ffffffffffffffff8111156122b9576122b9612a02565b6040519080825280601f01601f1916602001820160405280156122e3576020820181803683370190505b5090508181016020015b600019016f181899199a1a9b1b9c1cb0b131b232b360811b600a86061a8153600a85049450846122ed57509392505050565b6060600880546103c1906130a5565b60606103ac82604051806060016040528060408152602001613b286040913960016125ae565b808061236857506001600160a01b03821615155b1561242a57600061237884611ee8565b90506001600160a01b038316158015906123a45750826001600160a01b0316816001600160a01b031614155b80156123b757506123b58184611e7c565b155b156123e05760405163a9fbf51f60e01b81526001600160a01b03841660048201526024016104a2565b81156124285783856001600160a01b0316826001600160a01b03167f8c5be1e5ebec7d5bd14f71427d1e84f3dd0314c0f7b2291e5b200ac8c7c3b92560405160405180910390a45b505b5050600090815260046020526040902080546001600160a01b0319166001600160a01b0392909216919091179055565b61246583838361272e565b610ae3576001600160a01b03831661249357604051637e27328960e01b8152600481018290526024016104a2565b60405163177e802f60e01b81526001600160a01b0383166004820152602481018290526044016104a2565b6124c88383612794565b610ae3336000858585612161565b60008072184f03e93ff9f4daa797ed6e38ed64bf6a1f0160401b83106125155772184f03e93ff9f4daa797ed6e38ed64bf6a1f0160401b830492506040015b6d04ee2d6d415b85acef81000000008310612541576d04ee2d6d415b85acef8100000000830492506020015b662386f26fc10000831061255f57662386f26fc10000830492506010015b6305f5e1008310612577576305f5e100830492506008015b612710831061258b57612710830492506004015b6064831061259d576064830492506002015b600a83106103ac5760010192915050565b606083516000036125ce5750604080516020810190915260008152612022565b6000826125ff576003855160046125e59190613aee565b6125f090600261343e565b6125fa9190613b05565b612624565b60038551600261260f919061343e565b6126199190613b05565b612624906004613aee565b905060008167ffffffffffffffff81111561264157612641612a02565b6040519080825280601f01601f19166020018201604052801561266b576020820181803683370190505b50905060018501602082018788518901602081018051600082525b828410156126e1576003840193508351603f8160121c168701518653600186019550603f81600c1c168701518653600186019550603f8160061c168701518653600186019550603f8116870151865350600185019450612686565b90525050851561272257600388510660018114612705576002811461271857612720565b603d6001830353603d6002830353612720565b603d60018303535b505b50909695505050505050565b60006001600160a01b0383161580159061278c5750826001600160a01b0316846001600160a01b0316148061276857506127688484611e7c565b8061278c57506000828152600460205260409020546001600160a01b038481169116145b949350505050565b6001600160a01b0382166127be57604051633250574960e11b8152600060048201526024016104a2565b60006127cc83836000611f2e565b90506001600160a01b03811615610ae3576040516339e3563760e11b8152600060048201526024016104a2565b82805482825590600052602060002090810192821561283f579160200282015b8281111561283f578251829061282f908261334f565b5091602001919060010190612819565b5061284b92915061284f565b5090565b8082111561284b576000612863828261286c565b5060010161284f565b508054612878906130a5565b6000825580601f10612888575050565b601f016020900490600052602060002090810190611ee591905b8082111561284b57600081556001016128a2565b6001600160e01b031981168114611ee557600080fd5b6000602082840312156128de57600080fd5b8135612022816128b6565b60005b838110156129045781810151838201526020016128ec565b50506000910152565b600081518084526129258160208601602086016128e9565b601f01601f19169290920160200192915050565b602081526000612022602083018461290d565b60006020828403121561295e57600080fd5b5035919050565b80356001600160a01b038116811461297c57600080fd5b919050565b6000806040838503121561299457600080fd5b61299d83612965565b946020939093013593505050565b6000806000606084860312156129c057600080fd5b6129c984612965565b92506129d760208501612965565b9150604084013590509250925092565b6000602082840312156129f957600080fd5b61202282612965565b634e487b7160e01b600052604160045260246000fd5b604051601f8201601f1916810167ffffffffffffffff81118282101715612a4157612a41612a02565b604052919050565b600067ffffffffffffffff831115612a6357612a63612a02565b612a76601f8401601f1916602001612a18565b9050828152838383011115612a8a57600080fd5b828260208301376000602084830101529392505050565b600082601f830112612ab257600080fd5b61202283833560208501612a49565b803561ffff8116811461297c57600080fd5b803560ff8116811461297c57600080fd5b80356001600160801b038116811461297c57600080fd5b600082601f830112612b0c57600080fd5b8135602067ffffffffffffffff80831115612b2957612b29612a02565b8260051b612b38838201612a18565b9384528581018301938381019088861115612b5257600080fd5b84880192505b85831015612b8e57823584811115612b705760008081fd5b612b7e8a87838c0101612aa1565b8352509184019190840190612b58565b98975050505050505050565b803563ffffffff8116811461297c57600080fd5b6000806000806000806000806000806000806101808d8f031215612bd157600080fd5b8c359b5067ffffffffffffffff60208e01351115612bee57600080fd5b612bfe8e60208f01358f01612aa1565b9a50612c0c60408e01612ac1565b9950612c1a60608e01612ad3565b9850612c2860808e01612ae4565b9750612c3660a08e01612ac1565b9650612c4460c08e01612ac1565b955067ffffffffffffffff60e08e01351115612c5f57600080fd5b612c6f8e60e08f01358f01612afb565b945067ffffffffffffffff6101008e01351115612c8b57600080fd5b612c9c8e6101008f01358f01612afb565b9350612cab6101208e01612b9a565b9250612cba6101408e01612b9a565b9150612cc96101608e01612ac1565b90509295989b509295989b509295989b565b60008282518085526020808601955060208260051b8401016020860160005b84811015612d2857601f19868403018952612d1683835161290d565b98840198925090830190600101612cfa565b5090979650505050505050565b6020815260008251610160806020850152612d5461018085018361290d565b91506020850151612d6b604086018261ffff169052565b50604085015160ff811660608601525060608501516001600160801b038116608086015250608085015161ffff811660a08601525060a085015161ffff811660c08601525060c0850151601f19808685030160e0870152612dcc8483612cdb565b935060e08701519150610100818786030181880152612deb8584612cdb565b94508088015192505050610120612e098187018363ffffffff169052565b8601519050610140612e228682018363ffffffff169052565b9095015161ffff1693019290925250919050565b60008060008060008060008060008060006101608c8e031215612e5857600080fd5b67ffffffffffffffff808d351115612e6f57600080fd5b612e7c8e8e358f01612aa1565b9b50612e8a60208e01612ac1565b9a50612e9860408e01612ad3565b9950612ea660608e01612ae4565b9850612eb460808e01612ac1565b9750612ec260a08e01612ac1565b96508060c08e01351115612ed557600080fd5b612ee58e60c08f01358f01612afb565b95508060e08e01351115612ef857600080fd5b50612f098d60e08e01358e01612afb565b9350612f186101008d01612b9a565b9250612f276101208d01612b9a565b9150612f366101408d01612ac1565b90509295989b509295989b9093969950565b60008060408385031215612f5b57600080fd5b612f6483612965565b915060208301358015158114612f7957600080fd5b809150509250929050565b60008060008060808587031215612f9a57600080fd5b612fa385612965565b9350612fb160208601612965565b925060408501359150606085013567ffffffffffffffff811115612fd457600080fd5b8501601f81018713612fe557600080fd5b612ff487823560208401612a49565b91505092959194509250565b60006101208083526130148184018d61290d565b61ffff9b8c16602085015260ff9a909a16604084015250506001600160801b03969096166060870152938716608086015291861660a085015263ffffffff90811660c08501521660e083015290921661010090920191909152919050565b6000806040838503121561308557600080fd5b61308e83612965565b915061309c60208401612965565b90509250929050565b600181811c908216806130b957607f821691505b6020821081036130d957634e487b7160e01b600052602260045260246000fd5b50919050565b60208082526021908201527f576f726c64206e616d652065786365656473206d6178696d756d206c656e67746040820152600d60fb1b606082015260800190565b60208082526022908201527f4c6576656c206e756d6265722065786365656473206d6178696d756d2076616c604082015261756560f01b606082015260800190565b60208082526022908201527f4865616c74682076616c75652065786365656473206d6178696d756d206c696d6040820152611a5d60f21b606082015260800190565b60208082526021908201527f536f756c732076616c75652065786365656473206d6178696d756d206c696d696040820152601d60fa1b606082015260800190565b60208082526024908201527f576561706f6e732061727261792065786365656473206d6178696d756d206c656040820152630dccee8d60e31b606082015260800190565b60208082526022908201527f4974656d732061727261792065786365656473206d6178696d756d206c656e676040820152610e8d60f31b606082015260800190565b60208082526024908201527f426f6f73746572732076616c75652065786365656473206d6178696d756d206c6040820152631a5b5a5d60e21b606082015260800190565b634e487b7160e01b600052603260045260246000fd5b60208082526022908201527f576561706f6e206e616d652065786365656473206d6178696d756d206c656e676040820152610e8d60f31b606082015260800190565b601f821115610ae3576000816000526020600020601f850160051c810160208610156133305750805b601f850160051c820191505b818110156122835782815560010161333c565b815167ffffffffffffffff81111561336957613369612a02565b61337d8161337784546130a5565b84613307565b602080601f8311600181146133b2576000841561339a5750858301515b600019600386901b1c1916600185901b178555612283565b600085815260208120601f198616915b828110156133e1578886015182559484019460019091019084016133c2565b50858210156133ff5787850151600019600388901b60f8161c191681555b5050505050600190811b01905550565b634e487b7160e01b600052601160045260246000fd5b6000600182016134375761343761340f565b5060010190565b808201808211156103ac576103ac61340f565b600081516134638185602086016128e9565b9290920192915050565b7f7b2274726169745f74797065223a2022576f726c64204e616d65222c20227661815266363ab2911d101160c91b6020820152600082516134b58160278501602087016128e9565b61227d60f01b6027939091019283015250602901919050565b7f7b2274726169745f74797065223a20224c6576656c222c202276616c7565223a815261101160f11b6020820152600082516135118160228501602087016128e9565b61227d60f01b6022939091019283015250602401919050565b7f7b2274726169745f74797065223a20224c6576656c2050657263656e7461676581526c111610113b30b63ab2911d101160991b60208201526000825161357881602d8501602087016128e9565b61227d60f01b602d939091019283015250602f01919050565b7f7b2274726169745f74797065223a202253636f7265222c202276616c7565223a815261101160f11b6020820152600082516135118160228501602087016128e9565b7f7b2274726169745f74797065223a20224865616c7468222c202276616c7565228152621d101160e91b6020820152600082516136188160238501602087016128e9565b61227d60f01b6023939091019283015250602501919050565b7f7b2274726169745f74797065223a2022736f756c73222c202276616c7565223a815261101160f11b6020820152600082516135118160228501602087016128e9565b7f7b2274726169745f74797065223a202254696d6520506c61796564222c20227681526730b63ab2911d101160c11b6020820152600082516136bd8160288501602087016128e9565b61227d60f01b6028939091019283015250602a01919050565b7f7b2274726169745f74797065223a20224b696c6c73222c202276616c7565223a815261101160f11b6020820152600082516135118160228501602087016128e9565b7f7b2274726169745f74797065223a2022426f6f7374657273222c202276616c758152650ca44744044f60d31b6020820152600082516137608160268501602087016128e9565b61227d60f01b6026939091019283015250602801919050565b7f7b2274726169745f74797065223a2022576561706f6e200000000000000000008152600083516137b18160178501602088016128e9565b6c111610113b30b63ab2911d101160991b60179184019182015283516137de8160248401602088016128e9565b61227d60f01b60249290910191820152602601949350505050565b7403d913a3930b4ba2fba3cb832911d101124ba32b69605d1b8152825160009061382a8160158501602088016128e9565b6c111610113b30b63ab2911d101160991b60159184019182015283516138578160228401602088016128e9565b61227d60f01b60229290910191820152602401949350505050565b600082516138848184602087016128e9565b600b60fa1b920191825250600101919050565b600083516138a98184602088016128e9565b8351908301906138bd8183602088016128e9565b01949350505050565b757b226e616d65223a2022436865636b706f696e74202360501b815283516000906138f88160168501602089016128e9565b7f222c20226465736372697074696f6e223a2022436865636b706f696e747320616016918401918201527f7265207573656420746f20736176652070726f6772657373206174206365727460368201527f61696e20706f696e74732e2049662074686520706c61796572206661696c732060568201527f6f72206578697473207468652067616d652c20746865792063616e207265737560768201527f6d652066726f6d20746865206c61737420636865636b706f696e74207261746860968201527f6572207468616e207374617274696e67206f7665722066726f6d20746865206260b68201526a032b3b4b73734b7339116160ad1b60d6820152691134b6b0b3b2911d101160b11b60e1820152613a4f613a41613a3b613a1d60eb850189613451565b71222c202261747472696275746573223a205b60701b815260120190565b86613451565b615d7d60f01b815260020190565b9695505050505050565b7f646174613a6170706c69636174696f6e2f6a736f6e3b6261736536342c000000815260008251613a9181601d8501602087016128e9565b91909101601d0192915050565b6001600160a01b0385811682528416602082015260408101839052608060608201819052600090613a4f9083018461290d565b600060208284031215613ae357600080fd5b8151612022816128b6565b80820281158282048414176103ac576103ac61340f565b600082613b2257634e487b7160e01b600052601260045260246000fd5b50049056fe4142434445464748494a4b4c4d4e4f505152535455565758595a6162636465666768696a6b6c6d6e6f707172737475767778797a303132333435363738392b2fa2646970667358221220f974596eb2f646c95f8a8adcdf3e651a961bf3d8e15635b53914727cc48bacb164736f6c63430008190033",
        "linkReferences": {}
    },
    "methodIdentifiers": {
        "approve(address,uint256)": "095ea7b3",
        "authorizeWorld(address)": "623c0200",
        "authorizedWorlds(address)": "2df23171",
        "balanceOf(address)": "70a08231",
        "checkpoints(uint256)": "b8a24252",
        "getApproved(uint256)": "081812fc",
        "getCheckpointData(uint256)": "7b4a223b",
        "isApprovedForAll(address,address)": "e985e9c5",
        "mintCheckpoint(string,uint16,uint8,uint128,uint16,uint16,string[],string[],uint32,uint32,uint16)": "8331b478",
        "name()": "06fdde03",
        "owner()": "8da5cb5b",
        "ownerOf(uint256)": "6352211e",
        "renounceOwnership()": "715018a6",
        "revokeWorld(address)": "37a0b857",
        "safeTransferFrom(address,address,uint256)": "42842e0e",
        "safeTransferFrom(address,address,uint256,bytes)": "b88d4fde",
        "setApprovalForAll(address,bool)": "a22cb465",
        "supportsInterface(bytes4)": "01ffc9a7",
        "symbol()": "95d89b41",
        "tokenURI(uint256)": "c87b56dd",
        "transferFrom(address,address,uint256)": "23b872dd",
        "transferOwnership(address)": "f2fde38b",
        "updateCheckpointData(uint256,string,uint16,uint8,uint128,uint16,uint16,string[],string[],uint32,uint32,uint16)": "34000a35"
    },
    "id": 39
}